:020000040000fa
:10000000f0ff03205d400300ed520300f1520300b6
:10001000f9520300fd5203000153030000000000e9
:10002000000000000000000000000000ff1f0300af
:10003000f552030000000000ff1f0300ff1f030034
:10004000ff1f0300ff1f0300ff1f0300ff1f03002c
:10005000ff1f0300ff1f0300ff1f0300ff1f03001c
:10006000ff1f0300ff1f0300ff1f0300ff1f03000c
:10007000ff1f0300ff1f0300ff1f0300ff1f0300fc
:10008000ff1f0300ff1f0300ff1f0300ff1f0300ec
:10009000ff1f0300ff1f0300ff1f0300ff1f0300dc
:1000a000ff1f0300ff1f0300ff1f0300ff1f0300cc
:1000b000ff1f0300ff1f0300ff1f0300b5fe020028
:1000c000b9fe0200ff1f0300ff1f0300ff1f030014
:1000d000ff1f0300ff1f0300ff1f0300ff1f03009c
:1000e000ff1f0300ff1f03000000000000000000ce
:1000f00000000000ff1f0300ff1f0300ff1f03009d
:10010000ff1f0300ff1f03000dfa02000dfa02009b
:100110000dfa02000dfa0200ff1f0300ff1f03008b
:10012000ff1f0300ff1f0300ff1f0300ff1f03004b
:10013000ff1f0300ff1f0300ff1f0300ff1f03003b
:10014000ff1f0300ff1f030015c3020015c30200b9
:1001500015c3020015c302000000000000000000eb
:10016000000000000000000000000000000000008f
:100170000000000000000000ff1f0300ff1f03003d
:10018000ff1f0300ff1f0300ff1f0300ff1f0300eb
:1001900000000000ff1f0300ff1f0300ff1f0300fc
:1001a000ff1f0300ff1f0300ff1f0300ff1f0300cb
:1001b000ff1f0300ff1f0300ff1f0300ff1f0300bb
:1001c000ff1f0300ff1f0300ff1f0300ff1f0300ab
:1001d000ff1f0300ff1f0300ff1f0300ff1f03009b
:1001e000ff1f0300ff1f0300ff1f0300093103006f
:1001f000ff1f0300ff1f0300ff1f0300ff1f03007b
:10020000ff1f03000000000000000000ff1f0300ac
:10021000ff1f0300ff1f0300ff1f0300ff1f03005a
:10022000ff1f0300ff1f0300ff1f0300ff1f03004a
:10023000ff1f0300ff1f0300ff1f0300ff1f03003a
:10024000ff1f0300ff1f0300ff1f0300ff1f03002a
:10025000ff1f0300ff1f0300ff1f0300ff1f03001a
:020000040000fa
:10026000f8b500bff8bc08bc9e4670474d4b030074
:10027000f8b500bff8bc08bc9e467047294b030088
:020000040000fa
:080280008408030001000000e6
:020000040000fa
:100288002de9f843089c8bb3002c2fdd71b3002aad
:100298002cdd0d4609782e2928d0944226dc461eee
:1002a800012e0ad9042821d122461946284634f0bd
:1002b800c7ffb0fa80f0400919e0012827d093f869
:1002c8000080121b15442c441f4603e0002b1cdd44
:1002d80017f8018f15f8010b35f010f9064640465e
:1002e80035f00cf98642a4eb0503efd00020bde8f9
:1002f800f8830ef1010ebcf12e0fa2eb0e0201f1f4
:100308000205ded01446002c18dc0120efe793f834
:1003180000c0bcf12e0fe0462bd0bcf1400f0cd032
:100328001e46002001e084420add16f8017f402fb6
:1003380000f10100f7d1844202dd1446e046c2e72d
:1003480040291bd005eb04092946c5f1010702e045
:10035800b145314608d04878402801eb070e01f135
:100368000106f5d17445c4dcbcf12e0fa9d01446a2
:10037800e4e74029e6d10135013aa2e70135541ee8
:10038800c1e700bf12b32de9f041074682b08846a5
:100398001d46144601e02468a4b1237bab42fad180
:1003a8003b68a668b34228461a46f4db6368d8f867
:1003b80000100096fff764ff0028ecd0012002b07f
:1003c800bde8f081204602b0bde8f08110467047d4
:1003d8003ab32de9f041074682b088461d461446d7
:1003e800002001e024689cb1237bab42fad13b6832
:1003f800a668b34228461a4606db6368d8f8001098
:100408000096fff73dff40b924680120002cebd18e
:1004180080f0010002b0bde8f081012002b0bde823
:10042800f0810120704700bf6bb138b50a461d4600
:100438000c46194635f088f8284634f083ffa04268
:1004480028bf204638bd1846704700bf030e70b459
:1004580024d1030c27d1030a2ad1031c18bf012376
:1004680011b163f07f030b70a8b101256e1ef6b2bf
:100478000d448c1ced0034444b1cc3eb437221b17a
:1004880005ebc20220fa02f21a7001339c42f4d141
:10049800b01c70bc7047012070bc704709b1842340
:1004a8000b700425e2e709b183230b700325dde710
:1004b80009b182230b700225d8e700bf08b542b105
:1004c80013467f2903f8010b06d803b151700220a7
:1004d80008bd7f29fbd9134608461946fff7b6ff22
:1004e800013008bd7f280dd9030e10b40dd1030cbf
:1004f8001ed1030a20d1812348700b7002205df8b9
:10050800044b704708700120704784230b70042443
:1005180004f10053013bdb0020fa03f2083b13f11e
:10052800080f01f8012ff7d1601c5df8044b7047e4
:1005380083230b700324ebe782230b700224e7e785
:10054800f0b40e68771c4ff0000c9f42c2f800c050
:100558000fd8855d841928060ed42846049c2cb92a
:1005680000280f6000dd1060f0bc7047c4199c4281
:10057800f6d96ff08300f7e7802d05f07f000dd0e6
:1005880001281fd004281ad800f1005c0cf1ff3ca8
:100598004feacc054ff0010c0cfa05fc3d189d42c2
:1005a800e7d850b12f462618002014f8015fb4424e
:1005b80045ea0020f9d1002801db8445cedd6ff043
:1005c8008b00d1e7b71cbb42d3d34ff0800ceae7ce
:1005d80010b582b001240094fff7b2ff02b010bd3d
:1005e8002de9f04385b01f46dde90c93002837d08c
:1005f800002935d00e68741c9c422bd810f8068050
:100608000c60a8f11704012c21d81646012200928b
:1006180003aa0446fff794ff002824db039aa2f1fb
:100628000c03142b19d80d460fb187f8008016b1aa
:100638002b681c443460b9f1000f01d0c9f80020c0
:100648002b6813442b60002005b0bde8f0836ff0e1
:100658009800f9e76ff08300f6e76ff09400f3e78e
:100668006ff0ac00f0e76ff08b00ede7f0b585b008
:1006780000251468039538b10a9f651caf4203d35f
:10068800045d0295a14203d06ff08b0005b0f0bd68
:100698001d460b9b009314463b4603aa02a9fff78d
:1006a8004fff0028f0dbdde902302860236005b049
:1006b800f0bd00bf70b582b00d461446012100930d
:1006c80001912a46234602210646fff7cfff00285c
:1006d80013db2368012b0fdd2b68f25cff2a0ed099
:1006e80052b901332b602368013b002b236003dde3
:1006f8002b68f356002b07da002002b070bd1e44a9
:1007080096f90130002bf7da6ff08b00f5e700bfa0
:1007180070b582b01546126800920c46064601aaca
:1007280008466946fff7c6ffb0b9009be256002aa3
:1007380003da234413f8013c83b9304607f0f0fc90
:1007480060b9dde900123046214407f0e9fd40b9ff
:10075800dde9003213442b6002b070bd6ff06d000c
:10076800fae7304607f006fd6ff08d00f4e700bfaa
:1007780030b585b0012300920d6801930c4603ab98
:1007880002aa06210295fff771ff002804dbdde9c4
:10079800023213442360002005b030bd62b159b164
:1007a80050b130b40d686c1c9c4208d8435d13707e
:1007b80000200c6030bc70476ff0ac0070476ff0e1
:1007c8008300f7e710b5012482b0cde90034134661
:1007d8000a463021fff74aff02b010bd10b582b0bb
:1007e800049ccde9003413460a463021fff73eff4a
:1007f80002b010bd10b5012482b0cde90034134613
:100808000a463121fff732ff02b010bd10b582b0a1
:10081800049ccde9003413460a463121fff726ff30
:1008280002b010bd10b5012482b0cde900341346e2
:100838000a460421fff71aff02b010bdb0f5227f67
:100848002ad00fdc40f20b23984221d0b0f5037f69
:100858001cd0124ba3f15002b0f5027f0cbf184612
:100868001046704740f28f23984213d040f29223eb
:10087800984209d00a4b40f28921a3f17c028842b0
:100888000cbf184610467047064870470648704720
:10089800064870470648704706487047b8c90200be
:1008a800e4c9020088c90200d4c90200c4c9020010
:1008b800a0c9020070c9020030b5034683b04cb22b
:1008c800f2b10225002c15700adb7f2802f1010124
:1008d8001bd811b1002c537022db022003b030bdad
:1008e80001337f2b02f1010114d918460192fff759
:1008f800adfd019a451c02300023535503b030bdad
:10090800002c10db7f2be8d91146fff79ffd013043
:1009180003b030bd03200029eed0002c5370dcda80
:1009280003200225e8e701307f2801d80320d5e716
:100938001146fff78bfd0230d0e700bf2de9f041eb
:100948000e468046154607f02ffd0746404607f03d
:1009580087fc002e04461ddb431c002f18bf013303
:10096800b34224dc87b939462a46fff7a5ff074674
:10097800e319b3421bdc25b1e919404607f09efc98
:10098800c0b9e019bde8f0812a468021fff794ff3d
:100998000746ede72fb12a468021fff78dff07466e
:1009a800e9e739462a46fff787ff0746e3e76ff08e
:1009b8008300e7e76ff07000e4e700bf70b40c68ed
:1009c800e51c9d4211d880b1661cb3420dd3035d6e
:1009d800022b0ad1835d012b04f1020409d1035dc6
:1009e80013600d60106870bc70476ff08b0070bcae
:1009f80070476ff08c00f6e770b582b01546126844
:100a080000920c46064601aa08466946fff752fec0
:100a180008b102b070bd304607f082fb60b9dde96d
:100a280000123046214407f07bfc40b9dde9003272
:100a380013442b6002b070bd6ff06d00e9e73046db
:100a480007f098fb6ff08d00e3e700bf2de9f04158
:100a580086b00f680d9c0394002839d07e1cb342e1
:100a680036d3c75d0496032f32d116460122009271
:100a78000f4605aa04a90446fff762fd002830dbeb
:100a88000598002830dd049a511c99422cd80c9df9
:100a9800a35cc5b9072b24d853b104441444c3f14b
:100aa800080214f8014c04fa02f212f0ff0f18d1f0
:100ab80039600eb101383060039a72b113700020aa
:100ac80006b0bde8f081002bf2d06ff09100f7e797
:100ad8006ff0920006b0bde8f081039806b0bde85b
:100ae800f0816ff08b00ebe76ff08300e8e700bf61
:100af80038b501309ab10d46114603237f281446b4
:100b080001f8013b05d801b1507002230320e554d8
:100b180038bdfff79bfc431c0230e554f8e77f28fb
:100b280001d8032038bd1146fff790fc023038bdcc
:100b380000b583b00023136001930f2918d8dfe8ac
:100b480001f0273a505db517ce626b717787088e32
:100b58009c1b40f2b513984200f05c8240f2c91326
:100b6800984200f0438240f2a113984200f0368286
:100b7800002003b05df804fbb0f5237f00f02a8263
:100b880040f28d239842f3d108231360d848f0e748
:100b9800b0f5cf7f00f0768240f2e58140f2a113f4
:100ba800984200f0fb8140f289239842e0d1082363
:100bb8001360d048dde7b0f5227f00f0678200f2cd
:100bc8005d8140f20b23984200f01882b0f5037f54
:100bd80000f0e881b0f5027fcad107231360c64848
:100be800c7e740f20623984200f0f08140f28523df
:100bf8009842bdd109231360c048bae701a90bf098
:100c080045f90198b5e7742800f0dc817528afd163
:100c180008231360ba48ace79228a9d104231360cb
:100c2800b848a6e74f28a3d108231360b648a0e721
:100c38004a2800f02f8200f27b81482800f0e281e8
:100c480000f2b881472893d108231360af4890e792
:100c5800b0f5257f8cd109231360ad4889e7bd28fd
:100c680000f0dc81b0f5e87f00f0bc81bc287ff49f
:100c78007faf06231360a7487be70d2812d040f208
:100c8800628140f29223984200f0cc8140f2668162
:100c980040f29323984200f07d8140f295239842d8
:100ca8007ff466af092313609b4862e7b0f5db7fea
:100cb80000f0fc8140f20181b0f5e57f00f0ee81a3
:100cc80000f2ef8040f2b713984200f05b81b0f574
:100cd800e37f7ff44daf09231360904849e7453817
:100ce80063283ff645af01a353f820f045100000f4
:100cf800790b0000790b0000790b0000790b0000dc
:100d0800790b0000790b0000790b0000790b0000cb
:100d1800790b0000790b0000790b0000790b0000bb
:100d2800790b0000790b0000790b0000790b0000ab
:100d3800790b0000790b0000790b0000790b00009b
:100d4800790b0000790b0000790b0000790b00008b
:100d5800790b0000790b0000790b0000790b00007b
:100d6800790b0000790b0000790b0000790b00006b
:100d7800790b0000790b0000790b0000790b00005b
:100d8800790b0000790b0000790b0000790b00004b
:100d9800790b0000790b0000790b0000790b00003b
:100da800790b0000790b0000790b0000790b00002b
:100db800790b0000790b0000790b0000790b00001b
:100dc800790b0000790b0000790b0000790b00000b
:100dd800790b0000790b00003d1000003510000071
:100de800790b000085100000790b00007d100000d1
:100df800790b0000790b0000790b0000790b0000db
:100e0800790b0000790b0000790b0000790b0000ca
:100e1800790b0000790b0000751000006d100000c0
:100e280065100000790b0000790b00005d100000d0
:100e3800790b000055100000790b0000790b0000b9
:100e4800790b0000790b0000790b0000790b00008a
:100e5800790b0000790b0000790b0000790b00007a
:100e6800790b0000790b0000790b0000790b00006a
:100e7800790b0000790b00004d10000040f28f2321
:100e8800984200f0b78040f29223984200f08e809a
:100e980040f2892398427ff46bae092313602048ff
:100ea80067e640f2cb13984264d0b0f5237f7ff415
:100eb8005fae082313601b485be6b0f5d17f00f0f6
:100ec800f18009d8452859d0b0f5cf7f7ff450aece
:100ed8000923136014484ce640f2a313984255d0f6
:100ee800b0f5d97f7ff444ae092313600f4840e67c
:100ef80080ca020094ca0200dcca0200fcca0200ce
:100f080030ca0200d8cb0200dccb020050ca020073
:100f18009cca020078ca020008cb020084cb0200f7
:100f280004ca02002ccb020014cb020018ca02002b
:100f38004f286bd0972841d04e287ff419ae08234c
:100f480013605c4815e602286cd0032822d00028dc
:100f58007ff40eae0923136057480ae640f28b234c
:100f68009842f7d004e658287ff402ae05231360b0
:100f78005248fee5092313605148fae5052313603a
:100f88005048f6e5092313604f48f2e5092313603a
:100f98004e48eee50a2313604d48eae5092313603d
:100fa8004c48e6e5082313604b48e2e50923136043
:100fb8004a48dee5082313604948dae5042313604c
:100fc8004848d6e5082313604748d2e5072313604d
:100fd8004648cee5082313604548cae5092313604f
:100fe8004448c6e5092313604348c2e50923136052
:100ff8004248bee5092313604148bae50823136057
:101008004048b6e5082313603f48b2e5082313605b
:101018003e48aee5092313603d48aae50623136060
:101028003c48a6e5092313603b48a2e50323136067
:101038003a489ee50323136039489ae5082313606c
:10104800384896e503231360374892e50323136075
:1010580036488ee50323136035488ae50323136079
:10106800344886e503231360334882e5032313607d
:1010780032487ee50323136031487ae50323136081
:10108800304876e5092313602f4872e50923136079
:101098002e486ee5082313602d486ae5092313607e
:1010a8002c4866e5092313602b4862e50923136081
:1010b8002a485ee5f0cb020088ca0200fcc902009b
:1010c8003ccb020034cb020048cb020054cb0200d8
:1010d80044ca0200b4ca0200ccca0200f0ca020024
:1010e80000cc0200e4cb0200c8cb020010ca020008
:1010f80028ca020038ca020020cb020094cb0200a2
:10110800e4ca0200d4ca020058ca0200e8cb0200ae
:101118006cca0200d0cb020060ca0200accb02004d
:10112800b4cb0200bccb0200a8cb0200a4cb0200c7
:10113800b8cb0200b0cb0200c4cb0200a0cb0200a7
:1011480090cb020024ca0200a8ca0200c0ca02004a
:10115800f8cb020060cb020078cb02006ccb020017
:1011680010b5012482b0cde9003413460a460621a1
:10117800fff77cfa00eae07002b010bd08b549b18b
:101188000b4606227f2803f8012b06d803b14870c6
:10119800022008bd7f28fbd90b461946fff756f9f0
:1011a800013008bde8b10369dbb12de9f0419f6a60
:1011b800044638460d469046fff7e0ff064655b10f
:1011c80047450bd823692818596a3a4634f046f837
:1011d800f019bde8f0813844bde8f0816ff0830074
:1011e800f7e76ff0ac0070472de9f04f91b040f28f
:1011f800011405941a9d002800f0e580002900f0ec
:10120800df800646984600920c46002d79d1a94603
:1012180033691d680495e81d31f0b6f907460028c2
:1012280000f0ed807f2d00f2d1800423457003701b
:101238004ff0020b04aa07eb0b0130460af0b8fc8a
:10124800051e6ddbddf810a0b8f1000f6fd005aa00
:10125800002130460af0f0f905460390ca305fd104
:10126800059b029303f1090031f08ef9029b01906e
:10127800002800f0db80019d2946a122802b01f87f
:10128800012b40f2aa80181d7f2840f2ae80fff79c
:10129800ddf8059b451c1846019b00215a19fff7ec
:1012a80027fc01992b18194405aa304602930af025
:1012b800c3f9029b0546002840f09a80059ada4453
:1012c80009f10305134455441d444ff481700df191
:1012d800200b029329460123adf818005a46302006
:1012e8008df81a30fff7eaf806460544bcbb009ba8
:1012f80038461d6032f0a4f8019832f0a1f8039d39
:1013080011e0a02314220df12a018df82830fff7ef
:1013180049ff051e07db8df8295005f1020977e71b
:10132800384632f08df8284611b0bde8f08fda441f
:1013380009f1030555444ff481700df1200b29463e
:101348000123adf818005a4630208df81a30fff7ff
:10135800b5f806460544002c60d0cde90188009b0d
:1013680013b11b68ab424ddb32465946204633f079
:1013780075ffa319bdf81810a1539df81a209a708b
:10138800033652463946a01933f068ff56443846aa
:1013980032f056f84a46a0190aa933f05fffb8f1af
:1013a800000fc0d04e44a019dde90142214633f0b8
:1013b80055ff204632f044f8284611b0bde8f08fba
:1013c800002a7ff41eaf6ff0ac05ace70246294651
:1013d8000420fff773f883462ce7d81c7f283ff6d4
:1013e80056af019a0225507055e76870022552e7fa
:1013f800384632f025f8019832f022f893e76ff07a
:101408007c0590e7384632f01bf8b8f1000fdad0c7
:1014180001980028d7d032f013f8d4e7009b38465b
:101428001d6032f00df86ff0c9057ce7384632f0e0
:1014380007f86ff07c0576e72de9f04385b00c4698
:101448000c9900910121019115469846224602ab5c
:1014580006210746fff70af9002816db029ed4f892
:10146800009000232b6046b306eb090107eb010c43
:1014780007eb090212f8010b034462452b60f9d10e
:10148800b8f1150f216003d1002005b0bde8f08345
:101498004146286803aafff74bfb0028f4d0039bba
:1014a8009e4207d10146324607eb090033f0c8fed9
:1014b8000028e9d06ff09300e7e74946e0e700bf6e
:1014c8002de9f04184b015460f680a9c009400226b
:1014d8000e4601212a609846019103aa02ab3021e9
:1014e80003970746fff7c2f8002823db009443461a
:1014f8002a4603a93846fff79fff00281ddb039bf8
:10150800a34206d22fb15a1c944202d3f95c052992
:1015180004d03360002004b0bde8f08102339c425f
:1015280005d3ba5c002af4d06ff09100f3e76ff0ae
:101538008300f0e76ff08b00ede76ff08f00eae7cc
:10154800002845d0002943d0f0b587b00e460121c8
:1015580000920191316803911d46144605ab03aa18
:1015680030210746fff782f800282edb234604aa1d
:1015780003a93846fff722fa002826db00942a46fa
:10158800022303a93846fff79bff00281ddb039bb6
:101598005a1c944219d3fb5c062b0fd001210191f0
:1015a800009405ab03aa38460421fff75ff884309e
:1015b8000bd0039b0598336007b0f0bd224603a902
:1015c8003846fff7d5f80028e8da6ff08b00f3e724
:1015d8006ff0ac00704700bf2de9f04186b00024e1
:1015e8000594002975d0002873d0002a71d01d46b3
:1015f8000e46044605ab17464ff001082a46fff78a
:101608009fffcde9005804ab324630212046fff752
:101618002df800285adb2b4603aa31462046fff74f
:10162800cdf9002852db41f248122b4647f80280d8
:10163800214632463846fff7dff9002843db2b46c0
:101648003246214607f50a70fff7d6f900283adb3b
:101658002b463246214607f58a60fff7cdf9002868
:1016680031db2b463246214607f5cf60fff7c4f938
:10167800002828db2b463246214607f50a60fff78b
:10168800bbf900281fdb2b463246214607f6c82047
:10169800fff7b2f9002816db2b463246214607f53c
:1016a8004f60fff7a9f900280ddb2b46324621468b
:1016b80007f61870fff7a0f90028a8bf002002db82
:1016c80006b0bde8f0816ff08e00f9e76ff08b008f
:1016d800f6e76ff0ac00f3e700b583b001abfff7b6
:1016e8002fff03b05df804fb70b582b000230193af
:1016f800b8b113460c460a4601a90546fff720ff74
:10170800061e08db01997318a34207d82944284606
:10171800324633f045fa304602b070bd6ff08306aa
:10172800f9e76ff0ac06f6e700b583b001aafff75a
:10173800dbff03b05df804fb10b582b040b139b1ee
:101748000b68934204d801abfff7fafe02b010bd54
:101758006ff0ac00fae700bf2de9f04184b0002437
:10176800039400287ed000297cd04ff00108009215
:101778001f4615460c460a4603abcdf804803021b7
:101788000646fef773ff002869db23685a1c95425a
:1017980060d3f35c022b35d0cde9005803ab224669
:1017a80030213046fef762ff002858db2a462146e2
:1017b8003046fef7ddff002851db2168a94249d2f7
:1017c8004b1c9d424bd3725c052a06d102318d42d7
:1017d80040d3f35c002b4bd121604ff0010800226d
:1017e800cde900822b4621463046fff72ff970bb22
:1017f800cde9005803ab224630213046fef736ffcc
:1018080000282cdb2b4603aa21463046fef752ff60
:1018180000282adb0a9a039b02b1136022680fb1e1
:10182800b11839601344236003aa2b462146304679
:10183800fef740ff002818db0c9b039903b11960e1
:101848000b9b22680bb116441e600a44226004b048
:10185800bde8f0816ff0830004b0bde8f0816ff05f
:101868008b00f4e76ff0ac00f1e76ff08e00eee765
:101878006ff09100ebe700bf2de9f041069c20b323
:101888001ab314b3984641f2481317460022064685
:10189800e25020460d4606f043fc98b92a463146e8
:1018a800204606f03dfd98b904f50a75284606f06d
:1018b80037fc98b942463946284606f031fd98b9b2
:1018c800bde8f0816ff06d00fae76ff0ac00f7e764
:1018d800204606f04ffc6ff08d00f1e7204606f039
:1018e80049fc6ff06d00ebe7204606f043fc284604
:1018f80006f040fc6ff08d00e2e700bf30b5002431
:1019080089b0cde90444cde90644b2b114461a467b
:1019180007ab05ad029306abcde9003504abfff785
:101928001bff08b109b030bd0094079b0498dde99e
:101938000521fff7a1ff09b030bd6ff0ac00f1e75a
:1019480010b3f8b5044616460f464ff458720021f6
:101958001d4633f07bfd7f230c220021a4f86c2068
:1019680084f8f532c4f87472c4e99f6584f86d117f
:10197800282204f54b7033f069fd6ff00103c4f8b9
:101988002853c4f84033f8bd704700bf10b3f8b50a
:10199800044616460f464ff4587200211d4633f090
:1019a80055fd7f230c220021a4f86c2084f8f53221
:1019b800c4f87472c4e99f6584f86d11282204f58f
:1019c8004b7033f043fd6ff00103c4f82853c4f89b
:1019d8004033f8bd704700bf70b138b50446e368be
:1019e800256818460bb131f02bfd204631f028fd53
:1019f8002c46002df3d138bd704700bf01211020bf
:101a080033f010bc70b138b50446d4e90053184619
:101a18000bb131f015fd204631f012fd2c46002d9a
:101a2800f3d138bd704700bf2df004b82de9f04f51
:101a38000b4691b0002940f03a8100f16d01039105
:101a480000f14c04d0f87872974280f0a481d0f865
:101a580074120897002900f0ca8007f1010c62454a
:101a6800c0f0c5809b46cb5dcdf820c0062b15463f
:101a7800064600f0ad804ff0010808462b46cdf829
:101a8800008007aa08a9cdf820c0fef759fd002854
:101a9800c0f2ad80dde90737d6e99d501f443b1af7
:101aa8000b9022462844194607932cf0c3ff824620
:101ab800002840f09c80cde900780baa09ab3021c2
:101ac8002846fef7d3fd0028c0f291800b9c099ba5
:101ad8005a46012a04bf2a19c6e9c42323449c4252
:101ae80009936fd2cdf810a04ff00009da4601240f
:101af8004ff0000b0aab0baa3121cde90074284640
:101b0800cdf834b0fef7b2fdcde900740aab0baaec
:101b180030212846fef7aafd584568ddcde9007456
:101b28000cab0baa06212846fef7a0fd0028c0f240
:101b380023810b9bd81cb84259d8ea5c05eb030cef
:101b4800552a9cf8011000f0ad802a2a0c9840f024
:101b58009a80862951d0d846013301221c18009258
:101b68003b460daa0ba928460b94fef7e9fc002872
:101b78003ddb0d9cc9f58070a042acbf4ff0000c56
:101b88004ff0010cbbf1000f00f01481b8f1120ff7
:101b980000f09d80b8f1190f00f09680b8f1050f9c
:101ba80025d18649102204eb020e7045ddf82cb0d1
:101bb8004eda099a5c4494420b9498d3dde9033acf
:101bc8004b440393039a00231370c6f8784210e03d
:101bd800084606f51e71fef7cbfd002807dbd6e99f
:101be8009d1321b103f1010c6545bff444af6ff0bb
:101bf8008b0a504611b0bde8f08f013303eb000c9f
:101c080000943b460daa0ba92846cdf82cc0fef738
:101c180097fc0028ebdb0d9c6949c9f58070a04250
:101c280004f10e03acbf4ff0000c4ff0010c8342df
:101c3800c4bf4ff0010c0021baf1010f3dd00b9b3e
:101c48000e2202eb040e86459b46b2dc0029b0d07a
:101c5800bcf1000fadd1039b03eb090009eb0208af
:101c680033f0fcfa039b224603eb080005eb0b015b
:101c780033f0f4fa099a08eb04095c4494420b9493
:101c8800fff435af9ae7092a7ff465af92297ff40c
:101c980062af2a181a4412f8018cb8f1010f1ad051
:101ca800a34659e704291ad0d8460c9854e700f2fd
:101cb8006d11039100f13804c4e60b9bc6f81c4370
:101cc800ea18c6f81823bbe704223e496be73e49e9
:101cd8000b9b0522b5e7c3464ff012083ce70433d7
:101ce800bb429cf802800b9081d80e932b5c059325
:101cf80000943b460faa0ea92846fef721fc0028af
:101d0800fff675afdde90eb000280d90cdf82cb0c8
:101d1800fff66dafb8f1030f044624d0b8f1040ff5
:101d280027d0b8f1060f1bd0b8f1070f30d0b8f1a3
:101d3800080f33d0b8f10a0f33d0b8f10b0f33d0f6
:101d4800b8f1050f33d0b8f1120f7ff432af1e4946
:101d580005221044c9f5807c8445fff62aaf7ae74e
:101d680003221a49f5e7baf1010f07d004221849ee
:101d7800efe704221749ece782463ae705eb0b0246
:101d8800059b7266b06686f86c3004221049e0e75d
:101d980003221149dde76ff0830a2ae704220f497d
:101da800d7e703220e49d4e704220e49d1e70e22d1
:101db8000d49cee75a4659460b9b42e728cc02000c
:101dc80008cc020020cc020018cc020048cc02004b
:101dd80054cc02004ccc020044cc02003ccc0200a3
:101de80074cc02006ccc02005ccc0200f8b50f4643
:101df80014460546002110462c221e4633f026fbc9
:101e0800172f40f09e803368eb5c303b042b8cbf6f
:101e180040f26c734ff4fa6363613368ea5c303afa
:101e2800d1b2092900f2aa80581c295c3039092945
:101e380000f2a480616902eb820201eb4201616158
:101e48002a5c303a0a440233626133606369a3f260
:101e58006c7363613268ab5c303bd9b2092900f21c
:101e68008d80501c295c3039092900f2878021694e
:101e780003eb830301eb430121612b5c303b0b44f3
:101e88000232236132602369013b23613268ab5c13
:101e9800303bd9b2092971d8501c295c303909293d
:101ea8006cd8e16803eb830301eb4301e1602b5c31
:101eb800303b0b44911ce36031606b5c303bd9b222
:101ec80009295bd8d01c295c3039092956d8a16862
:101ed80003eb830301eb4301a1602b5c303b0b4414
:101ee800111da36031606b5c303bd9b2092945d81c
:101ef800501d295c3039092940d8616803eb8303f8
:101f080001eb430161602b5c303b0b44911d636026
:101f180031606b5c303bd9b209292fd8d01d295cc0
:101f2800303909292ad8216803eb830301eb4301df
:101f380021602b5c303b08320b4423600120326067
:101f4800f8bd3268ab5c303bd9b2092916d8501cb1
:101f5800295c3039092911d8616903eb830301eb46
:101f6800430161612b5c303b02320b446361326098
:101f78006269642303fb02f363614ee70020f8bd46
:101f880042694b699a4214dc01d00020704702690b
:101f98000b699a420ddcf8d1c268cb689a4208dc1a
:101fa80030b408d09a420cd09a4213d0002030bcea
:101fb80070470120704785688c68a542f2dd0120d2
:101fc800f5e785688c68a542eed145684c68a5425e
:101fd800eaddf4e782688b689a42e7d142684b6889
:101fe8009a42e3d100680b689842d4bf00200120d0
:101ff800dde700bf014b186000207047243a00203d
:10200800024b1b6803b1184733f0edb9243a00209e
:10201800f0b500248fb0064620460f4615460294b8
:10202800fff7eeff3946019003aa304602abfff7ef
:10203800ddfe38b1029ab35c2b2b06d02d2b4bd08a
:102048005a2b2fd000200fb0f0bd01320127b15c10
:10205800a1f13004e3b2092bf4d8b3185878a0f1f1
:102068003001c8b20928edd8901c305c3038c6b2af
:10207800092ee7d8db78303bdeb2092ee2d804eb34
:10208800840401eb440100eb8000c1eb011103eb78
:10209800400404eb810407fb04f4c4eb0414043289
:1020a800a4000292019b01a81c1b019433f052fa70
:1020b80001460028c6d03db903a8fff761ffb0fa72
:1020c80080f040090fb0f0bd03a9fff759ffb0fa3f
:1020d80080f040090fb0f0bd01324ff0ff37b6e78e
:1020e8002de9f04104468eb0d0f87402d4f8785245
:1020f80000279046059700eb050c04f51e720e4666
:1021080031bb04afc4f800c31146019300970df129
:102118000f0305aafef764fa002816db06ab18467b
:102128002022314633f092f9dde9042133f096f8a4
:10213800d4f87822551b0346c4f80453b8f1000fad
:1021480002d0b8f1050f23d100200eb0bde8f08110
:102158000df1100ec4f808c311460193cdf800e044
:102168000df10f0305aafef73bfa0028eddb06abdd
:1021780018463946202233f069f9dde9042133f0a5
:102188006df8d4f87822551b0346c4f80c53d5e7ec
:10219800184632469df80f10fff73aff0028d3d1b2
:1021a800002e0cbf6ff095006ff09600cde700bfd2
:1021b80070b1032908d910b504460020fff720ffa5
:1021c80000232060184610bd6ff08303184670473f
:1021d8006ff0ac03fae700bf10b584b0069ccde9f8
:1021e8000041002403a90394fef7faf904b010bdd6
:1021f80010b582b0002411461a4601ab0194fff7ce
:10220800f5fda0420cbf6ff09800204602b010bd4b
:102218007f2803d801b1087001207047fef716b96e
:102228000a4601463020fef749b900bf0a46014672
:102238000420fef743b900bf0a4601463120fef7e5
:102248003db900bf1038012894bf6ff05f006ff0f0
:102258007f0010b40843144621461a46c0b25df800
:10226800044bfef72bb900bf40f0a000fef726b9db
:102278002de9f04387b00024804689461d46019425
:102288009ab1012a73d0022a10d140f2852411464e
:10229800a0420cbf0224002401aa4046fef748fcd5
:1022a800064658b907b0bde8f083022411464046f7
:1022b80001aafef73dfc06460028f3d00199062343
:1022c8007f298df8083034d908460df10901fef749
:1022d800bdf80199471c25443d44294404aa3020ef
:1022e800fef7ecf840f2032398450546ddf8048034
:1022f80023d0b9f1000f16d004a92a46484632f077
:10230800adff3a4602a909eb050032f0a7ffeb1929
:10231800994431464846424632f0a0ff1cb14ff07e
:10232800050329f808304444e019284407b0bde8fb
:10233800f0838df809100227cde7b9f1000f10d00e
:102348003a4602a9484632f089ff4246314609eb2f
:10235800070032f083ff24b14d4445444ff0050394
:10236800eb5304eb0800384407b0bde8f083b0f540
:10237800027f9bd0a0f50373032b28bf022495e7a7
:102388002de9f0470e4688b00969109f054690462a
:10239800002962d00a6807b95200013200929db143
:1023a80090456ad393b998463b46294630466a46d3
:1023b80009f0caf9814618b9009808eb000291465d
:1023c800484608b0bde8f087002bf8d00022114637
:1023d8003046fef7e7feb0f10009f1dd03a94b46f0
:1023e800022240f20620fff743ff01aa824600219d
:1023f8000098fef77dfb0099494451440446014486
:1024080000223020fef75af84db309eb0a032344a3
:10241800009903440b4443452fd8494451442a4664
:1024280021443020fef74af880465246d04403a99a
:10243800281832f013ff09eb080a05eb08014a4691
:102448003046fef7affe04eb0a0805eb0a0001a9c7
:10245800224632f003ff4544a6e742229be7009953
:10246800494451442a4621443020fef727f8504475
:102478004844009b2044c218a1e76ff083099fe7f6
:102488002de9f04f87b00024cde90344ddf84890ea
:1024980000287dd0002a7cd000297ad0119c0d68b4
:1024a800002c7bd009f12d041c44a542c0f0828089
:1024b8001e46904605460f4604ab324603a94046e1
:1024c800fff73ef8002872da15f1050b7fd04ff4bc
:1024d80081720023a5f80520eb7103240821119bc4
:1024e800039113b1b9f1000f28d102224b462944b8
:1024f8001098fff7bdfe039a024404440392314644
:102508002a440420fdf7daff039b044403443444bf
:102518003246e8184146039332f0a0fe21462a4687
:102528003020fdf7cbff224606465946281832f0e0
:1025380037fba019386007b0bde8f08fb9f17f0ffd
:1025480033d905a94846fdf781ff039909f101032d
:102558000344294402221098fff78afe039a019047
:102568000244a91848460392fef708fe039a1199f7
:10257800831882464a46e818009332f06ffe009ba3
:1025880003eb0902019b03924c441c445444b6e7f4
:1025980099b96ff0ac0007b0bde8f08f03f12804db
:1025a800a54207d3ddf8449082e70120cee76ff01b
:1025b8008b00c0e76ff08300bde7119a283312b192
:1025c80009f105094b440b606ff0c900b3e76ff0e0
:1025d800ac046ff0a70182e72de9f047002788b027
:1025e80040f20119cde90477cde9067900284cd0ed
:1025f8000469002c49d0002a47d005461646e06aef
:10260800884604aa06a99a4609f040fc041e2edb57
:102618004846012132f006fe8146002838d000974e
:102628005346284607aa4946fef7defd041e22db6c
:10263800069b049a04f128050bb1511d0d4405951c
:10264800b8f1000f2dd03168a94224d340f20621f9
:10265800cde901320091234640464a4605a9fff7d5
:102668000fff041e48460adb30f0eafe34602046bd
:1026780008b0bde8f087484630f0e2fef7e730f0f2
:10268800dffe204608b0bde8f0876ff0ac04eee747
:102698006ff07c04ebe7484630f0d2fe6ff083041d
:1026a800e5e7484630f0ccfe6ff0c9043560dee758
:1026b8002de9f0419ab0074604260df11e001c468c
:1026c80015468df81d208df81c6032f0c7fd0023db
:1026d8001a4602a92046fff7cbfd023500eb050894
:1026e800044641466a463020fdf7e8fe694606463c
:1026f8000246384632f0b2fd224602a9b81932f035
:10270800adfda0192a46384407a932f0a7fd08eb09
:1027180006001ab0bde8f08108b52cf033f82cf0ab
:1027280037f820eae07008bd58b170b5044616467f
:102738000d4628220021043032f088fea66125606b
:1027480070bd704758b310b50446406818b130f0f2
:1027580077fe00236360e06818b130f071fe002353
:10276800e360606950b1a36a40f20622934210d038
:1027780040f28522934204d0002363610023e36181
:1027880010bd1df043ff60690028f5d030f058fef9
:10279800f2e707f067fd60690028f7d1ece77047ba
:1027a80000283ad090f85c33da0710b5044603d510
:1027b800406e08b130f044fea368012b27d094f88e
:1027c8005c335b0605d5606a18b1d4f88012fff750
:1027d80003f9a06a18b1d4f88012fff7fdf8e06a8f
:1027e80018b1d4f88012fff7f7f8206b18b1d4f8b5
:1027f8008012fff707f9606b18b1d4f88012fff761
:1028080001f904f54a70bde81040fff79bbf206846
:102818000028d4d030f014fed1e77047fff7c0bfce
:10282800704700bf704700bf0121502032f0fabc4a
:1028380038b5044680690d4608b130f001fe2069bc
:1028480008b130f0fdfde06910b12946fff7daf86c
:10285800206a10b12946fff7d5f82046bde8384070
:1028680030f0eebd2de9f0410f1e13dd061f1546b1
:1028780006eb87074ff0000856f8040f30b1c46c18
:102888002946fff7d5ff2046002cf8d1be42c6f8ee
:102898000080f1d1bde8f081b9b1f0b48b1c52b918
:1028a8000f4603220126022501243d708c5518701d
:1028b800f0bc104670470c464ff4687224f8042b9d
:1028c8001f46052223460326ede76ff0ac021046ab
:1028d800704700bf2de9f8431f46089b70b16ab1e5
:1028e80000290bdd0578904606465db9441c02e0d8
:1028f80014f8015b35b901392646f9d16ff0ac00ff
:10290800bde8f8832a0600d5013b8b42a8bf0b46d9
:102918001846294600229946fdf7ceff3c1a4c4539
:10292800a8bf4c46002c05460ddd424631782046ae
:10293800fdf7c2ff2246314608eb050032f08efc57
:102948002819bde8f8836ff08300d9e72de9f04135
:102958001c46069b02b3f8b1f4b10d6801359d42df
:1029680017d89046224606460f46fdf7a3fe0546b1
:1029780060b92268531e1f2b11d83968404631446c
:1029880032f06cfc22683b6813443b602846bde883
:10299800f0816ff08305f9e76ff0ac05f6e76ff0ab
:1029a8008b05f3e7002800f0b780002a00f0b48018
:1029b8002de9f04385b04ff000084ff00109c2f847
:1029c8000080cdf80490d0f87c32009300f51e7595
:1029d800044616460f46d0f874022a4603ab302147
:1029e800fdf744fe4045c0f28180d4f87832039a5e
:1029f800e3601344c4f87c32cde900392a46d4f8a0
:102a0800740203ab3021fdf731fe40456edbd4f88c
:102a18007822039bd4f87c1213448b42236165d837
:102a2800d4f87402002861d002eb09018b425dd30f
:102a3800815ca02918bfc4f820804ad0009304f50f
:102a4800217204f529732946fff780ff00284ddb22
:102a580023690093d4f87402012304f1180229466b
:102a6800fef72efd002831db226900212046fef703
:102a7800ddff00282adb4ff00108cdf80480236928
:102a880000932a4603abd4f874023021fdf7eefd1b
:102a98000028b8bf6ff08b0335db039bd4f878525e
:102aa8001d442b463a4600212046fff719fb002813
:102ab8001fdb2b463a4641462046fff711fb00280c
:102ac80027db226920460121fef7b0ff05b0bde8eb
:102ad800f0830232c4f87822294604f12002fdf777
:102ae8006dff404502db236a032b0ed96ff08b0084
:102af800ece72b463a4641462046fff7f1fa002814
:102b080007db6ff095033360dbe7d4f874022369c1
:102b180094e76ff09603f6e76ff0ac00704700bfdc
:102b28002de9f04389b0002703aa03970446fff76d
:102b380039ff00285ddb142204f1380104f14c0050
:102b480032f07efb94f85e33d4f87462d4f87c22b9
:102b58000092b0fa80f0400960f341034ff0010998
:102b680084f85e33cdf80490d4f87882cdf81080dc
:102b7800304604aa05ab3021fdf778fdb842c0f213
:102b88008a80dde904531d440095022304f11c02e8
:102b980004a93046fef794fc00287cdbe36940f288
:102ba8000622934230d040f28522934224d1cde9c7
:102bb80000972b4607aa04a93046fdf747ff0028cf
:102bc80066d1049d079bcdf804902b44009304aa7a
:102bd80006ab30213046fdf749fd0028049b58db41
:102be800dde906212e44134461602660c4f878327a
:102bf800039809b0bde8f083049bc4f878326ff0fd
:102c0800930009b0bde8f083ddf81090002e45d0a0
:102c180009f10103ab424ed816f80930302b24d005
:102c28000095032304f53f7204a93046fef704fc1f
:102c380000282ddb394607aad4f8fc0209f026f94a
:102c4800002832db079b83b300200123cde9003045
:102c580007aa04a92b463046fdf7f8fe08bb049adc
:102c6800079b02eb0309cdf81090a5eb0805284651
:102c78002ff08afc074618b306eb08012a4632f003
:102c8800edfa0123c4e90075c4f87892a360afe7b0
:102c9800049bc4f878326ff08b00aae7c4f87892e6
:102ca800f9e7049bc4f87832a3e7049bc4f87832a8
:102cb8006ff0ab009de7c4f878926ff08b0098e74f
:102cc800c4f878926ff07c0093e700bf20b30b2a1a
:102cd8002de9f04198bf124c0e4698bf04eb8204d0
:102ce80005464ff0010106f1140094bfd4f81073a3
:102cf80003279846144632f095fa286048b100f147
:102d08001403c0e90347c0e9018603600020bde859
:102d1800f0816ff07c00fae76ff0ac00704700bffd
:102d280068c9020060b1026852b1d368012b10b5be
:102d380007d00446104630f083fb0023236010bd03
:102d480070471368002bf4d091680029f1d019441a
:102d5800002403f8014b9942fbd1eae7fff7b6bf1d
:102d6800fff7e0bf152849d8dfe800f0131b4848f3
:102d7800241336484848361b2d482d1348484848e0
:102d88003f0b09b11f4b0b604ab11f4b136000206a
:102d9800704709b11d4b0b600ab11d4b1360002031
:102da800704709b11b4b0b60002af8d01a4b13600f
:102db8000020704709b1194b0b60002aefd0184b5f
:102dc80013600020704709b1164b0b60002ae6d04b
:102dd800154b13600020704709b1144b0b60002a93
:102de800ddd0134b13600020704709b1114b0b6005
:102df800002ad4d0104b1360002070476ff0ac004d
:102e0800704700bf04ce02002cce0200a8cc0200fe
:102e1800c4cc020054cd020074cd0200e0cc020004
:102e2800fccc020094cd0200b0cd020014cd02000b
:102e380034cd0200cccd0200e8cd02002de9f04fe0
:102e480085b00026144607460d461046694601aa75
:102e58009946cde900660296fff784ff002840f006
:102e6800ad80dff8fc81009908f11c062a46384637
:102e78002ef088ff8346a0b9012c75d00c2c40f0a9
:102e88009780009b434540f093807149009101f180
:102e980060032a46384601932ef074ff83460028c3
:102ea800ead0009e304632f04dfa07eb050a0bebec
:102eb8000008c2450ad94346984613f8012b0d2a43
:102ec80001d00a2a02d19a459846f5d1109b23b120
:102ed800012c00f0a2800c2c7cd0aaeb08020199ee
:102ee80040462ef04fff8346002800f0a980019845
:102ef80032f028fa584482450bd903461a780d2a2d
:102f0800184603f1010301d00a2a7cd19a451846d4
:102f1800f4d10f9b0bb1c01b9860abeb080b5d4560
:102f2800c0f29280bbf1000f40f38e8022460e9bc8
:102f380059464846fff7cafe041e11dbd9f800506f
:102f48002b46594653f8082b40462cf0fdff002825
:102f58007adb009a3f4b9a4245d0b83b9a4242d01e
:102f6800204605b0bde8f08f009a3b4b9a4211d03d
:102f780003f178018a4203f1b00111d08a42a3f12a
:102f8800400111d08a421ed0cde9008603f14001ec
:102f98000c246be702f178019432cde9001265e761
:102fa800d833cde9001361e7203bcde900135de795
:102fb8006ff0a104204605b0bde8f08f0446204616
:102fc80005b0bde8f08f03f58e7103f59e73cde96a
:102fd80000134be71e4b9e427ff47faf109a40f2de
:102fe8008523136079e700242868aa68039402ab54
:102ff80003a9fef7a5faa042b2dd109bcbb1109a47
:10300800029b1360ace7824583d9002a08bf1846a3
:103018000f9b002b7ff47faf7fe70f4b9e420ad0b8
:103028000e4b9e427ff459af109a40f2062313606c
:1030380053e7109c94e7109a40f285231360efe75a
:103048000f9b0bb10f9b9d606ff0830488e700bf57
:1030580050ce0200cccd020054cd020014cd0200a7
:1030680094cd020070b586b0dde90a650c9c029427
:10307800cde9006515461e46fff7e0fe044608b98f
:10308800012d02d0204606b070bd356805aaa96892
:103098002868fef729fb0028c8bfa860204606b0ac
:1030a80070bd00bf2de9f043a9b0002504950028a4
:1030b80031d082b3ab422edd04460e461746294670
:1030c800842207a898460df1140932f0bff9309a06
:1030d800069220460295114c00953146cdf8049091
:1030e80004ab01220594fff7a9fe041e06db049d2c
:1030f80025b1aa68424508d96ff0ac0404a8fff7c7
:1031080011fe204629b0bde8f0833846296832f020
:10311800a5f8ac68f2e76ff0ac04f2e73104000000
:10312800f0b587b0002405940c9d38b132b1a342a4
:1031380004dd35f0080406d0052d04d06ff0ac048a
:10314800204607b0f0bd0024cde9014400941f4695
:10315800164605ab2a46fff771fe041e06db059de1
:1031680025b1aa68ba4207d96ff0ac0405a8fff7e1
:10317800d9fd204607b0f0bd3046296832f06ef818
:10318800ac68f3e7b0b1aab191b170b51468ccb12d
:103198000668beb143689c4214d3044615460846e7
:1031a8001a46314632f05af863682b60002070bd29
:1031b800036813b96ff0ac007047436813606ff091
:1031c800c90070476ff0ac0070bd00bf30b583b068
:1031d8000c460025014600952046fff7d1f803b0bc
:1031e80030bd00bf10b40c46014620465df8044bc4
:1031f800fff7c6b800b583b000220b46009201461f
:103208001046fff7bdf803b05df804fb2de9f04761
:10321800804610461f4615460e4605f0c5f804467a
:10322800384605f0c1f88146284605f019f8824667
:10323800384605f015f85444204448443268831d44
:103248009a421dd3011d42463020fdf737f93168f7
:10325800044608eb04022846091bfdf76ffb00280b
:103268000cdb3168044408eb04023846091bfdf7ff
:1032780065fb002802db044434600020bde8f087c9
:103288006ff08300fae700bf2de9f04f83b088465e
:10329800dde90c15002800f0bc80b8f1000f00f043
:1032a800b880002a00f0b580002900f0b280002b19
:1032b800164607469a467cdd12787ab9701cb446e1
:1032c80003e026780130002e6fd101329a4204467d
:1032d800f7d15a1e66469b1a16449a46002dab46ed
:1032e80075dd0a78002a40f08d804a1c00208c4643
:1032f80003e012f8011b00294cd10130a842144602
:10330800f7d16c1e2d1bab466444002b46d0327897
:10331800d209994600921346002d43d0227852b222
:103328000192d10f294449440b44d8f80020981d34
:10333800824203f1040169d33a463020fdf7bef812
:10334800009a0346d1015046fa180093fdf7b4fae3
:1033580000281cdb009b034431464a46f8189e1897
:1033680031f07cff019b002bb4bf8021002158461f
:10337800ba19fdf7a1fa002809db06442a46b8194c
:103388002146354431f06affc8f80050002003b0e8
:10339800bde8f08f2d1aab46002bb8d199460093a3
:1033a800002dbbd129460195bce79b1a26469a46b3
:1033b80094e793d1002dab4614dd0a78002a94d007
:1033c8004ff000090c464b46cdf80090a7e716d100
:1033d8004bb132780195d20999460c4600921346b2
:1033e80029469fe70bd14ff000090c464b46cdf814
:1033f80004904946cb464d46cdf8009092e70c46de
:10340800ab4682e7002bdbd00c4680e76ff08300e9
:10341800bde76ff0ac00bae72de9f04385b00c4684
:1034280001210191002500941746984602aa03ab92
:103438003021cde902550646fdf718f9a84239dbd7
:10344800dde902321344a34234d1234603aa02a978
:103458003046fdf72ff9054640bbddf80c90b8f172
:10346800000f01d0c8f80090029d27b138464a469f
:10347800711931f0f3fe4d4403aa02a923463046e0
:103488000295fdf717f9054680b90d9bddf80c800c
:103498000bb1c3f800800c9b029f23b1f11942467f
:1034a800184631f0dbfe4744a74203d1284605b051
:1034b800bde8f0836ff0aa05f8e700bf2de9f043f7
:1034c80085b00e4601210191002500969046994647
:1034d80002aa03ab3021cde902550746fdf7c6f82d
:1034e800a8421fdbdde902431c44b4421ad123463b
:1034f80002aa39464046fdf70bf9002812db02aa5a
:10350800394623464846fdf703f9002807db029ba6
:10351800a34208bf284608d105b0bde8f08340465d
:1035280004f028fe6ff0aa00f6e7404604f022fef9
:10353800484604f01ffe6ff0aa00ede72de9f047ba
:10354800bcb000240894002800f0ac80002900f0ea
:10355800a980002a00f0a680002b00f0a3801d4659
:10356800904608ab2a460c460646fdf7e9ff0122bd
:103578000192009507ab224630213046fdf776f8d8
:10358800002812db2b4606aa21463046fdf716fa1c
:1035980000280adb2368ab4207d2f25c0133042a15
:1035a800236008d0063a012a05d96ff08b07384600
:1035b8003cb0bde8f0874ff0010acdf800a02b46db
:1035c80007aa21463046fcf7bbff0028eddbddf8f3
:1035d8001c90b9f1420f62dc27684a46f11909a824
:1035e8004f4431f03bfe7a1caa4227600dd2f35dae
:1035f800a02b18d04ff0000aa12b226037d06ff013
:10360800aa0738463cb0bde8f08700239a461a4618
:10361800cde9008a494609a808f000fb0746384664
:103628003cb0bde8f08722602b46cdf800a007aa81
:1036380021463046fcf784ff0028b6dd00951523a7
:1036480005aa3046fdf7f8fe07460028afd1014627
:103658001aaa059808f01afcb0f1000a31db1a9b87
:103668007bb323685a1caa422ed2f35cc4e7012319
:10367800009307aa2b4621463046fcf761ff002835
:1036880093dd0021cde9001107aa21463046fdf758
:10369800ddf9074600288ad1079b862b05dd6ff0e8
:1036a800830784e76ff0ac0781e7256803931a4620
:1036b80071191aa831f0d2fd039b1d4425601aaa7e
:1036c800a6e76ff0ab0772e73b463a46a0e700bfb4
:1036d8002de9f04fadf50d5d87b00df50e54268838
:1036e800002800f08d80002a00f08a80984640f279
:1036f80085239e42044615460f460ad040f206230b
:103708009e4233d0002630460df50d5d07b0bde86a
:10371800f08f0df118090023a9f1080a504619463f
:1037280049f80c3c1cf01eff061eecdb0df58d5b0a
:1037380000230bf1140b194658461cf013ff061e04
:103748000bdb3b462046524603a9fdf745ff0646dc
:10375800002843d058461cf059ff50461cf056ff2d
:1037680030460df50d5d07b0bde8f08f0df58d5baa
:103778000bf1140b422200230df11809584649e9b0
:10378800042306f013fd061ebddb3b4603a92046b5
:103798005a46fff7d3fe064618b1584606f062fdb2
:1037a800b1e7a9f1080a514602aa584608f000fafa
:1037b80006460028f1d1584606f054fd584606f052
:1037c800f5fc0646f8b159f8103c002be5d05344f7
:1037d80000220af8012b9a45fbd1dee7434628462a
:1037e80003a95a460396fef789f806460028b1d180
:1037f8005946504604f030fdb8b16ff07706a9e796
:103808006ff0ac067fe7cdf800b043462a46029930
:10381800504608f039fa06460028d4d1584608f030
:10382800f7f8061e08bf0126cde70df59e5109f5ec
:1038380008701c3104f010fd0028ded1012689e74c
:1038480058b152b100b583b0938b0093d2e90023ed
:10385800fff73eff03b05df804fb6ff0ac00704764
:10386800002800f0ba80002900f0b780002a00f094
:10387800b480002b00f0b1802de9f04387b04ff001
:10388800010800931d4617460c460a4603abcdf8bf
:10389800048030210646fcf7e9fe002812db2b469f
:1038a80002aa21463046fdf789f800287edb236806
:1038b800ab4207d2f25c0133042a236007d0063af0
:1038c800012a04d96ff08b0007b0bde8f0834ff0f0
:1038d8000108cdf800802b4603aa21463046fcf7a4
:1038e8002ffe0028eedb039b422b79dc2268134471
:1038f800ab422360e6d2f25c0133a02a236069d18f
:10390800cdf800802b4603aa3046fcf719fe0028a4
:10391800d8dd2368ab4263d25a1c954202d3f35ccc
:10392800302bcfd00095152304aa21463046fdf749
:1039380083fd0028c8d1014605aa049808f0a6fa14
:10394800b0f100094fdb059b002b4cd0b8f1000ffc
:1039580011d02368ab42b5d2f25c0133a12a2360af
:1039680038d10123009303aa2b4621463046fcf7a1
:10397800e7fd0028a6dd00200121cde900102b4637
:1039880003aa21463046fdf761f800289cd120683b
:1039980003994b463a46304408f03ef8d0b92368bc
:1039a800039a1344236007b0bde8f083cde90058bb
:1039b80003ab224630213046fcf758fe002881db55
:1039c8002a4621463046fcf7d3fe00287ff47caf18
:1039d80080469ee76ff0aa0076e76ff0ac0070476c
:1039e8006ff0830070e76ff0ab006de72de9f04fe3
:1039f800adf5037ddde98f6a8d9f002800f02781f2
:103a0800002900f02481002a00f02181002b00f019
:103a18001e818c9c002c00f01a818e9c002c00f0da
:103a28001681002e00f013819846c369044691461a
:103a38000d46042b00f2ed80dfe803f0a303218e8e
:103a480056004268baf5037f00f0cf8040f2a680a6
:103a580040f2892bda4500f0ed8000f2ae80baf52d
:103a6800227f40f0a780284649462af0c3ff054632
:103a780000284ed11023c4e908b30223e36140f2c1
:103a880006239f424dd040f285239f4240f0838019
:103a9800002341f2a41002932ef076fd60610546e2
:103aa80030462ef071fde060002d00f0ab8000285c
:103ab80000f0a8802846a26921681cf003fd05468d
:103ac80038bbb6f5007f00f2d28002a940468c9b35
:103ad8006269fdf713ff0546d8b932468e99e0684a
:103ae80031f0bcfba56035e0002540f206239f427b
:103af80000f08b8040f285239f420ad102a8d4e9c6
:103b080008326168fef7d4fda84200f0a3806ff088
:103b18009a052046fef716fe28460df5037dbde8fa
:103b2800f08f0023236140f6041002932ef02cfd41
:103b38006061002866d0a269216806f0fbfa051ebc
:103b4800e7db02a940468c9b6269fff789fe051ee8
:103b5800dfdbded10323e36140f206239f425cd022
:103b680040f285239f4256d131466369e06804f1eb
:103b780008021df0d3f80546002dc8db0423e361d5
:103b8800b3e7876220202ef0fffc02466060c8b3ce
:103b98000123e36156e76ff09305bae740f2052386
:103ba8009a4547d01ed9baf5027f43d040f20b237d
:103bb8009a450ad06ff0e705abe740f28f239a45a4
:103bc80013d040f292239a45f4d1284649462af068
:103bd80061ff054600289cd140f2a1121c23c4e9cc
:103be80008234ae7baf5d07fe4d1284649462af0a7
:103bf80071ff054600288cd14ff4cf722023c4e909
:103c080008233ae76ff07c0583e72369012b7ff4eb
:103c18007eaf00257de70025b0e76369019304f1d5
:103c2800100300933146636a62688e9807f008fcb7
:103c38000546a1e7284649462af0fcfe0546002825
:103c48007ff467af58221423c4e9082315e76ff0ff
:103c5800ac0561e7a06800283ff459af2a4602a9dd
:103c680031f0eefa051e18bf6ff09a0551e76ff0b4
:103c780083054ee72de9f04fa1b0002413940028e6
:103c880001f0fd800e93d0f84433099283460d91dc
:103c9800002b34d00794099bbbb10d9a052a22d07a
:103ca8000f2a20d0dbf82473002f01f02f811a4649
:103cb80023f00203012b00f04686052a00f0438614
:103cc800099b043b012b40f2c886dbf854338bb9bf
:103cd800079adbf85833002b18bf1a460792079843
:103ce80021b0bde8f08fdbf85433002bf0d0099aef
:103cf800052aedd00793079821b0bde8f08f11464b
:103d0800c0e9d533fef70cff021e0792c0f2058109
:103d1800dbf87832dbf81020934280f0a780dbf8dc
:103d28002010012941f3bf80dbf87412cbf8b032c0
:103d3800d01a01eb030a002408900646cbe9aaa092
:103d48001494baf1000f01f09a80cb5c0125a32be3
:103d5800149540f02f810346009515aa14a95046e2
:103d6800fcf7eefba042c0f22581cde9006515ab5a
:103d780014aa30215046fcf779fca042c0f21a81ff
:103d8800149b9e426ed9cdf828a01194da46089d5e
:103d98000a9e0123cde9005314aa15ab3021304601
:103da800fcf764fc0028c0f2bc81062300950024bf
:103db80016aa14a930461694fdf73efb031e079376
:103dc800c0f2bb84149b5a1c9542c0f0c387f15cb7
:103dd80001290ed1d91c8d42c0f0bc87b25c012ae2
:103de80003f1020340f09d81f45c1491003418bf84
:103df8000124089b0a9e0125cde9003514aa15abbc
:103e080004213046fcf732fc031e0793c0f2958468
:103e1800dde91583149a912b06eb020b00f0318231
:103e280000f2cf80812b00f0f78140f2a580852b2e
:103e380000f08e84902b00f0bc83832b00f07a82f4
:103e4800002c119b18bf2346119343461344089a2c
:103e580014939a429bd8119bd3461bb16ff09f03d2
:103e6800cbf85833dbf81030cbf87832dbf87c32fb
:103e780000930bf51e740123dbf87402214613aa84
:103e8800fdf71efb031e0793fff629af012300224f
:103e9800cde900322146dbf87c32dbf874021caa3b
:103ea800fcf7d4fd031e079340f02a86dbe99d202a
:103eb8001c9bdbf87c12cbf81430034402448b4281
:103ec800cbf87832cbf8602074d1dbf81820139b3c
:103ed8009a4240f0ed879bf85c339b070dd4dbf8e2
:103ee800000050b1dbf8041039b10bf533722af039
:103ef800a1fd079000287ff4f2ae9bf85e3313f023
:103f0800020412d0099b23b10d9b052b01d00f2b66
:103f18000bd17f238bf8f532bde613469733012b7f
:103f28003ff6ddaecbf85423f2e69bf85c53002352
:103f380015f00406cbf8243300f074850e9bcbf8fb
:103f48002433002b00f06e850e9b142203f124010c
:103f58000bf14c0031f074f9002800f0d5850e9b68
:103f6800cbf82433002e00f0cf850023cbf8243380
:103f7800002c3ff490aecce7452b00f05284802b08
:103f88007ff45eaf9af85c33980700f141879af89e
:103f98005f1343f0020364f341018af85c338af843
:103fa8005f13002c40f07687b8f1000fcde91b4471
:103fb80000f3a9806ff08b030793079821b0bde841
:103fc800f08f962b00f0b1804ed9a82b00f0198104
:103fd80040f2f1218b4200f0fb80972b7ff430af49
:103fe8009af85d3313f0010640f012879af85f23c0
:103ff80043f0010364f3c3021aac8af85d338af80c
:104008005f231cab2246cde90085302158461a961d
:10401800fcf72cfb0028cddb45461a9b9d4220d996
:1040280000950a231baa21465846fdf705fa10f108
:10403800940ff2d0002874db1b9b4a2b00f07b8482
:1040480052d8482b00f06f8400f26584472be4d1e6
:104058009af8fa3243f002038af8fa321a9b9d4220
:10406800ded8dde91423f1e6922b3ff4eeae952b72
:104078007ff4e6ae9af85c335e0700f1c9869af8d9
:104088005e1343f0040364f3c7118af85c338af8bb
:104098005e134346002c40f001871cae1bafcde9f0
:1040a800008533463a4630215846cde91b44fcf793
:1040b800ddfa0028fff67eafbbf1000f3ff47aafc0
:1040c8001b9a531c43453ff675af1bf802201b9300
:1040d800802a00f0d2849af85c136ff38201dde93c
:1040e80014238af85c13b1e64f2b00f00c84972b4d
:1040f80000f001844e2b90d19af8fa3243f0200355
:104108008af8fa3289e70123cde900831baa1caba0
:1041180004215846fcf7aafa002800f3068600286e
:104128009fda6ff08b030793e5e59af85d3313f098
:10413800100640f06d869af85e2343f0100364f38e
:1041480045121aac8af85d338af85e231bab224607
:10415800cde9008530215846cde91a661c96fcf752
:1041680085fa0028fff626af1b9b002b3ff422aff1
:10417800bbf1000f3ff41eaf1a9a531c9845fff489
:1041880019af1bf802201a93802a00f06e84812a46
:104198007ff410af9af85d3343f040038af85d333b
:1041a80001230093214643461caa5846fcf7c8f948
:1041b8000028fff6ffae1c9b012b3ff7fbae1a9bb6
:1041c80098457ff6f7ae1bf803308af8f63248e7d1
:1041d8000024cde9004443461caa1ba95846cde952
:1041e8001b44fcf733fca042fff6e4ae1b9b98454a
:1041f8007ff6e0ae1bf803308af82033dde914239c
:1042080024e69af85e33d90700f1028643f00103e9
:104218008af85e33434619e69af95c33002bc0f2fc
:10422800f7859af85f139af85c2364f3820142f0e9
:10423800800200248af85f138af85c2343461caa8c
:10424800cde900441ba958461b94fcf7fffba0428c
:1042580040f085851c9b002b3ff4acae022b3ff74a
:10426800a9ae1b9b1bf80310aaf8f8127ff4f9ae4d
:104278005b44149a5878159b41ea0021aaf8f81271
:10428800e4e59af85d3313f0020c40f0c1859af822
:104298005e23caf8bcb243f0020364f382021cae88
:1042a8001baf8af85d338af85e23caf8c0823346aa
:1042b800cde900853a4630215846cde91bccfcf7bc
:1042c800d5f90028fff676aecde9008533463a46a3
:1042d80030215846fcf7caf90028fff66bae1b9b45
:1042e800bbf1000f3ff4bdae5c1ca045c0f08b8550
:1042f8001bf80320a02a00f0d78398457ff6b1aebb
:10430800a12a00f070851b9b5c1ca045fff4a9ae98
:104318001bf80330a22b7ff4a4ae01254346324696
:104328003946584600951b94fcf70af90028bff651
:1043380098ae3fe69af95d33002bc0f269859af88a
:104348005d339af85e2318a964f3861243f080035c
:104358000f9100248af85d338af85e2319ab0a4668
:10436800cde9008530215846cde91844fcf77ef99f
:10437800a042fff61fae199b002b3ff41bae9af824
:104388005c230f9e42f040028af85c23002b7ff7e3
:1043980068ae189a541c18941bf80220013b822a14
:1043a800199320d0a42a57d0812a00f0ca80862adf
:1043b80000f0e883a02a00f09380012300931caa50
:1043c800434631465846fcf7bbf80028fff6f2ade5
:1043d8001c9adde918130a4423449b1a002bcde9e3
:1043e8001823d6dc3de6012300931caa4346314638
:1043f8005846fcf7a5f80028fff6dcaddde91832d1
:10440800e31a1a44daf880021992fdf7f7fa074618
:10441800002800f01c851c98022301307b602ef0d8
:10442800b3f88146f860002800f015851c9c189d9b
:10443800bc6022460beb050130f010ff199bdaf83f
:1044480024203a60254400221b1b189509f80420f3
:104458001993caf8247099e701251caa00954346c8
:1044680031465846fcf76cf80028fff6a3adcde9b5
:1044780000851cab324630215846fcf7f7f8002877
:10448800fff698addde91832e31a1a44daf880022b
:104498001992fdf7b3fa0746002800f0d8841c9853
:1044a800042328447b602ef06ff88146f8600028ca
:1044b80000f0d1841c9c189dbc6022460beb0501c2
:1044c80030f0ccfe199bdaf82c203a602544002203
:1044d8001b1b189509f804201993caf82c7055e786
:1044e8001aad01274ff000092a4600974346314686
:1044f8005846cdf86c90fcf723f84845fff65aadbe
:10450800dde918311a9acdf80080a4eb030c8c442d
:10451800aceb020c09231baa31465846cdf864c0ff
:10452800fcf78aff4845fff645ad00972a46434603
:1045380031465846fcf704f84845c0f28d831a9a6c
:1045480047e70125009543461caa31465846fbf724
:10455800f7ff0028fff62eaddde91832e31a1a44fa
:10456800daf880021992fdf749fa0746002800f0a8
:104578006e841c987d6028442ef006f88146f86009
:10458800002800f068841c9c189dbc6022460beb38
:10459800050130f063fe199bdaf828203a602544bb
:1045a80000221b1b189509f804201993caf82870d3
:1045b800ece69af85c3313f0100f0cbf6ff0c502ed
:1045c800002213f00806079240f022849af85f232d
:1045d80018a943f0080364f300020f918af85c33ca
:1045e8008af85f230b46cde9008517aa3021584683
:1045f800cde91766fcf73af80028fff6dbac179b05
:10460800984540f29680cdf83080cdf840a05a1ced
:10461800179201221bf8034000920c9b0f9a17a9ce
:104628005846fbf78dff00287ff7c4aca02c00f09c
:104638008b80a12c7ff4beac109b03f1340adde91a
:10464800173400210beb030522461991002c68d082
:104658001aab0b9307e0042e2bd0dde91932134473
:10466800a34219935bd20126cde900460b9b19aaf8
:1046780030212846fbf7faff0028fff69bac199b70
:10468800a342bff497ac9a191c920df16c081cafa9
:1046980015f8039000964246394623462846fbf70c
:1046a8004fff00287ff786ac09f01f06731e012b09
:1046b800d1d819f0200f0bd0012101910094434665
:1046c8003a4630212846fbf7d1ff0028fff672aca6
:1046d80010202df059ff074600283ff46bac1b98bb
:1046e80001302df051ff81467860002800f0fe80ef
:1046f800dde91b814246294430f0b0fd002309f86a
:104708000830daf800303b60dde919321344a3427f
:10471800c7f808803e73caf800701993a3d3dde97f
:10472800173213440c9a17939a423ff670afddf88c
:1047380040a0079b002b3ff494ac079ba033d346c3
:104748003ff48cabfff7cbba109b03f1300a76e746
:104758009af85d3313f0080640f05a839af85e23fe
:1047680043f0080364f304128af85d338af85e2381
:104778001cabcde900851baa30215846cde91b6644
:10478800fbf774ff0028fff615ac1c9b002b3ff4c9
:1047980068ac1b9bda1c9045c0f0bd831bf8031066
:1047a800012903f1010040f0a0811bf80010012944
:1047b80003f1020040f099811bf800109af85c039d
:1047c8001b92003118bf012161f3041090458af84b
:1047d8005c037ff646ac06339845fff4ebabbbf1c0
:1047e800000f3ff4e7ab531c9845fff4e3ab1bf80d
:1047f800021002297ff4deab1bf80330012b02f113
:1048080002027ff4d7ab9af85c331bf802208af8cf
:10481800f42243f020038af85c33dde91423fff720
:1048280015bb9af85d3313f0040640f0f1829af84c
:104838005e2343f0040364f3c3021baf1aac8af887
:104848005d338af85e233b46cde900852246302158
:104858005846cde91a66fbf709ff0028fff6aaab10
:104868001a9b98457ff6fdab46465d46b84601273c
:10487800434622463021cde900672846fbf7f6fe7d
:104888004ff0000c60454ff007031caa214628464c
:10489800fff647ac0096cdf870c0fcf7cdfd0028b8
:1048a8003346424621462846fff63bac002d3ff4ee
:1048b80038acddf868e00eeb070c6645fff431ac68
:1048c80015f80e900097cdf868c0fbf739fe002860
:1048d800fff627acb9f1860f00f04581dde91a3201
:1048e80013449e421a93c2d8fff7bbbb38462ef03a
:1048f800a7fdfff75fbb9af8fa3243f001038af885
:10490800fa32fff78abb9af8fa3243f040038af882
:10491800fa32fff782bb9af8fa3243f008038af8b2
:10492800fa32fff77abb9af8fa3243f004038af8ae
:10493800fa32fff772bb9af8fa3243f010038af89a
:10494800fa32fff76abbdbf81840dbf80c10dbf82b
:104958007402dbf810203b690494dbf814400394dc
:10496800dbf8604002947c6801943c680094521a19
:1049780001440bf54a70fff739f8079000287ff4d7
:10498800aea9dbf8247340f201220423adf86c20b1
:104998008df86e30002f40d000230793d7f8209071
:1049a800b9f1000f50d000234ff0010808930df122
:1049b800700a0023b8f1020fcae90033cae90233ca
:1049c80000f00e82b8f1040f00f0fc81b8f1010f7d
:1049d80023d1dbf81833dbf828602bb1dbf81c2374
:1049e800cdf87480cde91e23002e00f0c98106f1b0
:1049f800080406f10c052946434620464a46fbf7bb
:104a0800c1fc012843462946204606d0fa69fbf72f
:104a1800dffc012801d13668e6e76ff0c50307938c
:104a2800fff75db9af0740f1fd81099b032b00f04b
:104a3800f9810e9bcbf82433002b7ff485aa002c38
:104a48003ff429a9fff765bafb69002b3ff44ba98e
:104a58004ff00108cdf82090a9e740f20122042385
:104a6800adf86c208df86e3098e79af85d3343f016
:104a780020038af85d33fff793bb0120009043467b
:104a8800324639465846fbf75bfd00287ff792aa65
:104a9800dde91b01142958440af5387200f0e88151
:104aa80029f0c8fffff73bbb00954346324639461d
:104ab80058461b94fbf744fd0028fff67baa1b9a77
:104ac800551ca84504d31bf80230a02b00f0f58133
:104ad8001c9b1a441b9290457ff6c3aa541ca04500
:104ae800fff411ac1bf802200ae49af85c239845fd
:104af8006ff304128af85c237ff6b3aa1a466ee6af
:104b0800fff6eda8fff7e1b9002c7ff402aaa90689
:104b1800dbf8242305f0100340f125819bf8f412fb
:104b28008bf8f512002b3ff4b6a82c06937a00f107
:104b3800ab819942fff4afa8002b40f0838100239a
:104b48008bf8f532099b002b3ff4bfa80d9b052b72
:104b58003ff4c9a80d9b0f2b3ff4c5a86ff0ed03d8
:104b68000793fff7bcb81c9b742b7ff4b7aedde945
:104b78001a322b44caf8b822caf8b432dde9142331
:104b8800fff764b9012300931caa434631465846ef
:104b9800fbf7d6fc0028fff6c4aadde918521c9fd3
:104ba800641be819224480451992c0f2d380002f73
:104bb80040f377811bf805303a2b00f072812f2bd8
:104bc80000f02b816b1c58445b440beb050406e09a
:104bd80013f8012b3a2a06d02f2a00f01e818342af
:104be800a3eb0401f4d1023f8f4240f3168129441c
:104bf80059444b782f2b40f010818b782f2b40f0a5
:104c08000c81daf88002fcf7f9fe0546002800f06e
:104c18001e811c98062301306b602df0b5fc0746f9
:104c2800e860002800f082811c9cddf86090ac6090
:104c380022460beb090130f011fb199bdaf824200e
:104c48002a60002109eb04021b1b1892395519939d
:104c5800caf82450fff79abbcdf870901b9fbbf1a0
:104c6800000f3ff4a7a9189a531c9845fff4a2a96e
:104c78001bf802201893a02a7ff49ca901251caade
:104c8800009543465846fbf75bfc4845fff692a95a
:104c9800daf88002fcf7b2fe814600283ff48aa9c0
:104ca80040f209139f42189a40f0dd80531c984542
:104cb800c0f0c3801bf802201893162a00f2bd80aa
:104cc8009e4fd740ff4317f0010740f0b68000958c
:104cd8001caa434631465846fbf732fc0028c0f26e
:104ce800ac801c98c9e9017001302df04dfc0346d9
:104cf800c9f80c00002800f0a0801c9f189d3a46b7
:104d080018460beb050130f0a9fa0022daf8243036
:104d1800c255c9f80030caf82490199b3d44234471
:104d28005b1bcde91853fff731bbdde91b011429e3
:104d380058440af533727ff4b3ae03684568846853
:104d4800c168caf8cc3255609460d16003691361b8
:104d5800fff787b96ff083030793fef7c0bfbff66d
:104d680080a9fff7deb9002b3ef495af937a002bac
:104d780068d1099b8bf8f542002b3ef4a6afe5e617
:104d88001e9b002b13dd1f9b8bb11fa91ea843463a
:104d98004a46fbf7f7fa01283ff43fae43461fa9fe
:104da8001ea8fa69fbf714fb01287ff436ae089bae
:104db8000133032b08933ef496af1bab089a12f805
:104dc8000380f6e5dbf81033dbf82c60002b3ff4aa
:104dd8000baedbf81423cdf87480cde91e2303e66f
:104de800dbf8246000e60123009332464346394647
:104df80058461b94fbf7a4fb0028fff6dba8dde967
:104e08001b3213441b9398457ff62ba9fff77cbaf6
:104e18006ff08f030793fef762bf6ff0a00307934d
:104e2800fef75dbf0e9bcbf82433002b7ff49aa8c6
:104e3800002c3ef430affff76cb848462ef000fb6c
:104e4800fff7b8b8013b8bf8f532fef724bf6ff0d7
:104e58007c03fef74fbf38462ef0f2fa6ff07c0362
:104e68000793fef73cbf1c9fd5192ef0e9fa54e7cb
:104e7800036845688468c168caf8e03263e76ff080
:104e8800ac030793fef72bbfbbf8f82250073ff59a
:104e980050ae51e643461194fef7d8bf1194fef781
:104ea800d5bf00219fe66ff08c030793fef717bf6d
:104eb8006ff097030793fef712bf0124009443464f
:104ec800324658461b95fbf73bfb0028fff672a8b5
:104ed8001b9a1519a845fff4fbad1bf80230862b69
:104ee8007ff4f6ad00944346324658461b95fbf7cf
:104ef80027fb0028fff65ea8dde91b32caf8c822a6
:104f08001a445b441b92caf8c432e4e56ff0bb0351
:104f18000793fef7e4be9af85c2398456ff30412f2
:104f28008af85c237ff69da8fff744b828462ef040
:104f380087fa6ff07c030793fef7d1be0010480094
:104f48002de9f0410446fef795fe061e07dba56e27
:104f5800002d07dce26940f285239a4219d03046d9
:104f6800bde8f081681c2df00ffb074628b32a46e0
:104f7800616e30f073f994f85c336766002243f091
:104f880001037a55e26984f85c3340f285239a423a
:104f9800e5d12568002de2d06768002fdfd03846bc
:104fa8002df0f2fa804640b13a46294630f056f9db
:104fb8000123c4f80080a360d1e76ff07c06cee738
:104fc800fff7bebf00b585b001230392009303aa83
:104fd800fcf70af905b05df804fb00bf10b584b012
:104fe800002401220b460092214603aa0394fcf7f1
:104ff800fbf810f1ca0f08bf039804b010bd00bf3a
:1050080000b585b001230392009303aa0023fcf79f
:10501800ebf805b05df804fb0023fdf7ddba00bf2f
:105028000123fdf7d9ba00bf2de9f0430c4685b03e
:1050380091460d681f46064608b36a1c93421ed364
:10504800425d062a0df10c081cd00122019200973e
:105058004346224630213046fbf708fb00281ddb7b
:10506800039b216819444a467019491b29f0e2fc40
:105078002368039a1344236005b0bde8f0830df15b
:105088000c08e2e7012542460095fbf759fa00288b
:1050980004db0d68039b1d440d60d6e76ff08b00a1
:0450a800eae700bf74
:020000040000fa
:1050ac002de9f04f05680c685b426c40adf50d7d49
:1050bc0004ea030a85ea0a04002a01943add013263
:1050cc004fea8209051d0c1d03af09eb000c2e469f
:1050dc00a0468346be4656f8042f58f8040f4240ab
:1050ec001a4066454ef8042ff5d1019bcbf80030e1
:1050fc003a4655f8043f52f8040f654583ea00031d
:10510c002b60f6d10b68a9f1040983ea0a038944e0
:10511c000b6000e01c46636857f8042fa14583ea36
:10512c000203636004f10403f4d100200df50d7d3e
:10513c00bde8f08f019b03600b68002083ea0a0333
:10514c000b600df50d7dbde8f08f00bf03680bb350
:10515c005a1c013b50f82210f9b900eb8202c3b182
:10516c0052f8041d10b45c1e31b923465cb152f8e0
:10517c00041d5c1e0029f8d00360436843605df891
:10518c00044b00207047046043605df8044b002022
:10519c00704703604360002070474368fae700bf24
:1051ac000b46d0e90012c3e9001200f108014ff4dc
:1051bc00087203f1080030f04fb800bf38b5002377
:1051cc0004460d46c0e90033194608304ff4087206
:1051dc0030f03af921462846bde83840e0e700bff8
:1051ec0020207047882070472de9f04f03680d6828
:1051fc001468ab42b8bf2b46882ca8bf8824002b60
:10520c001360a0463bdd00f1040e0431101d002696
:10521c00002792464ff0000c51f8044f5ef8049fa3
:10522c00002514eb090245f1000b0cf1010c94194b
:10523c0047eb0b0563454ff000072e4640f8044f33
:10524c00ead156ea0701524606d0882b19d0991c90
:10525c0001204af821000344434513600bda02f1a4
:10526c000801023301eb880802eb8303002143f8a9
:10527c00041b4345fbd11046bde8f04f66e7002305
:10528c00eae74ff0ff30bde8f08f00bf2de9f04f9b
:10529c000d680668914683b0002dd9f80080019006
:1052ac000246c9f8006067dd0020043102f1040ced
:1052bc0009f104070346b24686465cf8042f51f800
:1052cc00044fd61a4ff0000363eb0e0b0130321b68
:1052dc006bf10003854247f8042f03f001034ff0f4
:1052ec00000eead156467446ae4242dda91c019a24
:1052fc0089000a449346494400205bf8042b01358d
:10530c00d21a4ff0000363eb0403ae4241f8042bb6
:10531c0003f001030446f0d14645b8bf354609da1f
:10532c00ab1c09eb830300220135a84543f8042b81
:10533c00fadc86b1731c013e59f8232092b909ebb3
:10534c00830336b153f8042d711e4ab90e46002e54
:10535c00f8d1c9f80060c9f8046003b0bde8f08f5b
:10536c00c9f80060d9f80460c9f8046003b0bde85e
:10537c00f08fa845d4dcdce700231c461d46b3e7c0
:10538c00f8b5d1f804c04768674530d09646036835
:10539c000a6893420e4619dc20db5c1e16d45a1c9c
:1053ac0050f8221056f822208a420fd316d89b00b0
:1053bc000433c518334406e055f8042d53f8041d86
:1053cc008a4203d80ad314f1ff34f5d2cef8047014
:1053dc0072463146fff75aff0020f8bd0146cef861
:1053ec0004c030467246fff751ff0020f8bd5760ed
:1053fc00bde8f840fff7f8bef8b546684c68a64221
:10540c0027d1944603680a6893420d4619dc25dbc4
:10541c005c1e16d45a1c50f8221055f822208a42d1
:10542c000fd31bd89b000433c1182b4406e051f852
:10543c00042d53f8047dba4203d80fd314f1ff3472
:10544c00f5d2ccf8046062462946fff71fff002016
:10545c00f8bd5660bde8f840fff7c6beb6fa86f652
:10546c0076090146ccf8046028466246fff70eff29
:10547c000020f8bd0368872b34dc2fd0f0b40d4628
:10548c00d1f800c045f8083b064656f8082b002a10
:10549c0013dd00231a462f4656f8044b43ea440307
:1054ac0047f8043be30f046801329442f4dc9bb1ef
:1054bc0001233b600b6801330b60634505eb8302f2
:1054cc0005da002401339c4542f8044bfad14368b9
:1054dc004b600020f0bc70470b68eee7d0f824223c
:1054ec00002acbda4ff0ff30704700bfd0e9003c08
:1054fc00002b2de9f043d2f800e0c2e9003c4add74
:10550c008946071d02f1040800260024002557f8df
:10551c00040f0136e9fb004520462946b3424ff003
:10552c0000050c4648f8040ff1d154ea050130d0bf
:10553c00882b39d0981c591c116042f820400b461e
:10554c0073450eda872b0cdc981c02eb80000024d0
:10555c0001e0872b04dc01339e4540f8044bf8dc5a
:10556c0001b3481c4b1e52f8201059b902eb8001b4
:10557c0033b151f8040d5c1e48b92346002bf8d109
:10558c0013609c46c2f804c00020bde8f083136091
:10559c00f8e71946d4e7bef1000f1946c8bf00233f
:1055ac00d2dcdde78c46ede74ff0ff30ede700bfd6
:1055bc002de9f04fd0f800b00c680beb040abaf1ef
:1055cc00870fadf5137d00f38e800026cde9061212
:1055dc00059031464ff408720aa82ff035ffb245fa
:1055ec0075dd012cb8bf0124631e0293059b0833a3
:1055fc000393069b08333746b04604930df12409f8
:10560c00029b039a4345a8bf4346a8eb0305abebab
:10561c00050e02eb8505049a9e4502eb830c46ddd4
:10562c0003f1010e3a4637460026344655f8040b72
:10563c005cf804190023e1fb00230021cde90031c3
:10564c00dde900010134c01941f10001a6450e4409
:10565c000746ebdc08f10108c24549f8042fcfd10d
:10566c00069bcdf820a05c68059b5b685c400994a8
:10567c000af1010208a90af1ff3351f8221061b9ad
:10568c0008a901eb820233b152f8041d581ee1b98e
:10569c000346002bf8d108931c4608a807990994d7
:1056ac00fff77efd00200df5137dbde8f08fbef1f8
:1056bc00000fb7dc08f101083a46c245374649f8f5
:1056cc00042f4ff000069bd1cae70893e5e7059b32
:1056dc00cdf820a05c68069b5b6884ea03040994ff
:1056ec00c6d15446d9e74ff0ff30dce770b50568fa
:1056fc000e68ae423446a8bf2c46ae42acbfa419cd
:10570c006419872c156813dc1446fff751ff2368c6
:10571c00002b0cdb9d420add9a1c04eb820200215b
:10572c0001e09d4203d0013342f8041bf9d570bd52
:10573c004ff0ff3070bd00bf8446f0b45cf8083bfe
:10574c000f680e4603f18045013d46f8083bad005d
:10575c005a1eac4435440dd400235cf80449db07d5
:10576c0043ea5403013a45f8043904f00103541c8c
:10577c00f3d10b689f4206eb830206dd0024013354
:10578c009f4242f8044bfad10b6845684d60bbb19f
:10579c005a1c013b51f8220058b901eb820233b17b
:1057ac0052f8040d5c1e38b92346002bf8d10b605f
:1057bc001d464d60f0bc70474d600b60f0bc7047ef
:1057cc001d46f6e72de9f04f0f68856883b0002f72
:1057dc00019245f3000856dd0026043150f8089b71
:1057ec0002f1040e3346b44601e050f8045f51f860
:1057fc00044fb145ccbf2a46002208ea040414eb3e
:10580c00020a4ff0000545f1000b01361aeb0302ba
:10581c004beb0c03be424ef8042f4ff0000ce4d1be
:10582c00012f4feac37332dd019a013f02f10800e8
:10583c00002400e01446d0e90012d20742ea5101dc
:10584c00621cba4240f8041bf4d10234019901ebfa
:10585c00820100208d6843ea55038b600199c1e9f0
:10586c00004063b9531c01eb830332b153f80419a4
:10587c00501e11b90246002af8d1019b1a60002073
:10588c0003b0bde8f08f012f4ff00003ccdc0124f6
:10589c000022dbe7f8b50e1e77dd82420446154682
:1058ac0002d01146fff77cfc6f68a7b32c6806f199
:1058bc001f025209a24223463dd2901c05eb8000e8
:1058cc00134600210133a34240f8041bfad3012fe5
:1058dc0034d02b6806f01f06c6f1200146b105eb4b
:1058ec0082024ff0ff34506824fa01f108405060f6
:1058fc007bb1591c013b55f82120cab905eb81013c
:10590c0033b151f8042d581e8ab90346002bf8d137
:10591c002b606b60f8bd2368b6eb431ffada2b687b
:10592c0006f11f0252099a421c46c6d3d2e72b60dd
:10593c006b686b60eee7012fccd19cb100210b465c
:10594c0094462f1d57f8042f013350184042002a5b
:10595c0018bf41f00101a3423860f3d3634562469e
:10596c0008d24c42991c05eb81010133934241f85a
:10597c00044bfad3002306f01f066b602a60c6f1b5
:10598c0020011346002eaad1b3e70021c2e9001171
:10599c0002f10800bde8f8404ff408722ff054bd36
:1059ac002de9f04f85b004460290106803918728ca
:1059bc006fdc9a4292466cd0002864dd99460a4608
:1059cc00261d830009f1040b019306eb03085946cd
:1059dc00dc46171d00240025864656f8043f57f870
:1059ec00040fe41845f10005221a65f100031c466a
:1059fc0046454feae3734cf8042f1d46edd1704633
:105a0c00831c029a039e52f8232056f82330a618c2
:105a1c0045f10007f41a019b67f100059b440af15c
:105a2c00040aeb170026002751f8044f5af8042fec
:105a3c00361902ea030247f10007b41847f10005d2
:105a4c00ea1759452e460c601746edd10023c9f8cc
:105a5c000000c9f8043001388cb9019b04334b4465
:105a6c0030b153f8042d411e3ab908460028f8d13c
:105a7c00c9f8000005b0bde8f08fc9f8000000209f
:105a8c0005b0bde8f08f0020c3e9000005b0bde80b
:105a9c00f08f4ff0ff30f3e72de9f04f8bb09a42c7
:105aac00059300f08a80d2f800e0bef1000f7bdd98
